:1000000001308A00112900002A30840000080319F9
:1000100016280230A100A001A00B0C28A10B0B2870
:100020009730A000A00B1228800B092808002E187A
:100030001B2887111C288715831687118312AE1879
:1000400023280712242807168316071283122E1955
:100050002B2887122C288716831687128312AE1935
:1000600033288512342885168316851200008312E2
:100070000715831607113C283D28831207118316A4
:10008000071183120800AF01831687150030831211
:1000900087190130AF048316071600308312071A40
:1000A0000130A0000310A00D2008AF0483168716AE
:1000B00000308312871A0130A000A00DA00DFC3083
:1000C000A0052008AF048316851600308312851A18
:1000D0000130A000A00DA00DA00DF830A005200853
:1000E000AF042F08A10008002830A6000C30A7009C
:1000F0000130A8000630A9000711831607118312EA
:100100000710831607108312871083168710871134
:100110000712871285120711071087100F308312FC
:10012000AA0004200130A5002508033C031CA028D8
:100130000330AE0017200530AA000420A50A942839
:100140000230AE0017200530AA000420A5012508C2
:10015000033C031C10292630250784000008AA0050
:10016000AB012A08AC008316071107108710831211
:100170000710831607108715071687168516831232
:100180008714831687100000831207158316071142
:100190000000831243202108AE00071183160711C7
:1001A00000008312071583160711D62883124320F7
:1001B0002108AD0007118316071187110712871256
:1001C000851283122E0EA000F030A00520082D0409
:1001D000A1002108AD00AD1FEF288316BB28AB0896
:1001E000031DF4280710F5280714831607100000D4
:1001F000831287108316871000008312071183165D
:10020000071183122C0EAD000F30AD052D08AE0086
:1002100017202C080F39AD00AE001720A50AA7281B
:100220002B2903081F3983001F1300308316910008
:1002300083129A019B019C0183169A0199018312F2
:100240001F130130831691001F169F161F13831270
:100250009F131F1474288316051183120511023091
:10026000A500FA30AA000420A50B31298316051138
:10027000831205150230A500FA30AA000420A50B50
:060280003C292B2963005C
:02400E00E43F8D
:00000001FF
;PIC16F616
;CRC=C7BB  CREATED="21-Oct-24 10:43"
